:020000040000FA
:100000000C94AD000C94D5000C94D5000C94D50044
:100010000C94D5000C94D5000C94D5000C94D5000C
:100020000C94D5000C94D5000C94D5000C94D500FC
:100030000C94D5000C94D5000C94D5000C94D500EC
:100040000C94F90E0C94D5000C94C70E0C94A10ED0
:100050000C94D5000C94D5000C94D5000C94D500CC
:100060000C94430F0C94D50000000008000201001E
:100070000003040700000000000000000000000072
:10008000240027002A00436F756C64206E6F742073
:1000900066696E6420612076616C696420424D500F
:1000A0003238302073656E736F722C20636865631D
:1000B0006B20776972696E6721000086227E6DD29F
:1000C0004620290B2170104080523F065B4F666D21
:1000D0007D077F6F090D614843D35F777C395E7977
:1000E000713D76301E753815373F736B336D783E32
:1000F0003E2A766E5B39640F2308025F7C585E7B74
:10010000716F74100C753014545C7367506D781CEB
:100110001C14766E5B463070010000000000230066
:100120002600290001020408102040800102040872
:100130001020010204081020000000002500280003
:100140002B00040404040404040402020202020258
:100150000303030303036210521411241FBECFEFE5
:10016000D8E0DEBFCDBF11E0A0E0B1E0EAE7F4E304
:1001700002C005900D92A438B107D9F723E0A4E896
:10018000B1E001C01D92A533B207E1F710E0CCEA5F
:10019000D0E004C02197FE010E94E718CB3AD107B6
:1001A000C9F70E9447110C94301A0C940000853056
:1001B000A8F4262F2052330BF901E654FF4FE491A7
:1001C000A82FB0E0AA0FBB1FA25EBC4F30E8439F30
:1001D000A0011124E42BF0E0ED93FC930895089521
:1001E00008952F923F924F925F926F927F928F92DB
:1001F0009F92AF92BF92CF92DF92EF92FF920F93B6
:100200001F93CF93DF93CDB7DEB729970FB6F8943E
:10021000DEBF0FBECDBF69837A838B839C83498702
:10022000122F20E030E0A9010E94F51487FF2EC0B4
:1002300089819A81AB81BC81B05889839A83AB83D1
:10024000BC8301E093E09D83B12CA12CC12CD12C67
:1002500040E8E42E4FE3F42EB9858B2E912C412EED
:10026000512C712C612CA814B904A4F4C301B2015F
:100270000E94AA159B01AC01C701B6010E94AD16F0
:100280006B017C018FEFA81AB80AEDCF00E0A4E063
:10029000AD83DACF29813A814B815C81C701B601F8
:1002A0000E94AD1620E030E040E05FE30E94891438
:1002B0000E9473154B015C01312C212C412C512CD7
:1002C000320143949D81E92FF0E0812F90E0B0E06E
:1002D000A0E08D839E83AF83B8872E163F068CF1F6
:1002E000812F90E0B0E0A0E08D839E83AF83B8873C
:1002F00084149504A604B70490F1A985A150A98798
:100300006D817E818F8198850E94AA159B01AC0129
:10031000C701B6010E94FA146B017C01AC019B017C
:1003200069817A818B819C810E94AD1620E030E04A
:1003300040E05FE30E9489140E9473154B015C0149
:10034000D7CFA30192016D817E818F8198850E9414
:100350001F172B013C019FEF291A390ABECF20E05D
:1003600030E040E85FE3C701B6010E94F51487FF63
:100370002FC080E490E090931F0380931E0390931E
:100380002103809320031092230310922203909361
:1003900025038093240390932703809326032996B3
:1003A0000FB6F894DEBF0FBECDBFDF91CF911F9186
:1003B0000F91FF90EF90DF90CF90BF90AF909F9004
:1003C0008F907F906F905F904F903F902F90089507
:1003D000E12CB4E0B983412E512C712C612C811495
:1003E0009104A104B10421F489858E1508F44BC051
:1003F0009985992319F0FF24F3949E11F12C19810A
:10040000A12FA150A983DA2E153018F5C501B4012A
:10041000A30192010E942F17862F6031D0F4605DF6
:100420004F2D8A3098F064E68D3081F048F462E414
:100430008B3061F063E48C3049F04F2D61E606C0EB
:1004400065E48E3019F066E48F30B9F7812F0E9491
:10045000D700B981B23069F41250198384E08D1548
:1004600040F0ED2DF0E0EE0FFF1FE25EFC4F118239
:100470001082C501B401A30192010E942F17490106
:100480005A01E394ACCF002379F0E9819E2F91507B
:100490009983E53048F4F0E0EE0FFF1FE25EFC4F79
:1004A00080E490E091838083B981B7FD78CFB53047
:1004B00044F4EB2FF0E0EE0FFF1FE25EFC4F1182E1
:1004C0001082A981A150A983EFCFAF92BF92CF92A2
:1004D000DF92EF92FF920F931F93CF93DF936C0104
:1004E0007B018B01040F151FEB015E01AE18BF08E5
:1004F000C017D10759F06991D601ED91FC91019097
:10050000F081E02DC6010995892B79F7C501DF91AE
:10051000CF911F910F91FF90EF90DF90CF90BF9000
:10052000AF900895FC01538D448D252F30E0842F2A
:1005300090E0821B930B541710F0CF96089501970B
:100540000895FC01918D828D981761F0A28DAE0FF8
:10055000BF2FB11D5D968C91928D9F5F9F73928F7F
:1005600090E008958FEF9FEF0895FC01918D828DAB
:10057000981731F0828DE80FF11D858D90E0089578
:100580008FEF9FEF0895FC01918D228D892F90E0D0
:10059000805C9F4F821B91098F739927089588E48F
:1005A00092E00E94C30221E0892B09F420E0822F0F
:1005B000089580E090E0892B29F00E94CF028111FC
:1005C0000C9400000895FC01A48DA80FB92FB11D53
:1005D000A35ABF4F2C91848D90E001968F73992779
:1005E000848FA689B7892C93A089B1898C91837057
:1005F00080648C93938D848D981306C00288F38950
:10060000E02D80818F7D80830895EF92FF920F937C
:100610001F93CF93DF93EC0181E0888F9B8D8C8DAE
:1006200098131AC0E889F989808185FF15C09FB7A2
:10063000F894EE89FF896083E889F9898081837065
:10064000806480839FBF81E090E0DF91CF911F9114
:100650000F91FF90EF900895F62E0B8D10E00F5F35
:100660001F4F0F731127E02E8C8D8E110CC00FB60B
:1006700007FCFACFE889F989808185FFF5CFCE01A3
:100680000E94E302F1CFEB8DEC0FFD2FF11DE35A39
:10069000FF4FF0829FB7F8940B8FEA89FB89808126
:1006A0008062CFCFCF93DF93EC01888D8823B9F0A0
:1006B000AA89BB89E889F9898C9185FD03C080816D
:1006C00086FD0DC00FB607FCF7CF8C9185FFF2CFEA
:1006D000808185FFEDCFCE010E94E302E9CFDF915B
:1006E000CF91089590E0FC01E859FF4F2491FC015F
:1006F000EC5DFE4F3491FC01EE5BFE4FE491EE2386
:10070000C9F0222339F0233001F1A8F4213019F186
:10071000223029F1F0E0EE0FFF1FE85CFE4FA591BB
:10072000B4918FB7F894EC91611126C030953E23B7
:100730003C938FBF08952730A9F02830C9F02430AA
:1007400049F7809180008F7D03C0809180008F7772
:1007500080938000DFCF84B58F7784BDDBCF84B5F5
:100760008F7DFBCF8091B0008F778093B000D2CF88
:100770008091B0008F7DF9CF3E2BDACFCF93DF93FE
:1007800090E0FC01EC5DFE4F24918E5B9E4FFC01DE
:1007900084918823D1F090E0880F991FFC01E458E0
:1007A000FF4FA591B491FC01E85CFE4FC591D49137
:1007B00061110EC09FB7F8948C91E22FE0958E23C3
:1007C0008C932881E223E8839FBFDF91CF91089526
:1007D0008FB7F894EC91E22BEC938FBFF6CF823079
:1007E000910538F0880F991F880F991F0597019779
:1007F000F1F708953FB7F8948091CD019091CE0123
:10080000A091CF01B091D00126B5A89B05C02F3F84
:1008100019F00196A11DB11D3FBFBA2FA92F982F26
:100820008827BC01CD01620F711D811D911D42E021
:10083000660F771F881F991F4A95D1F708958F92E9
:100840009F92AF92BF92CF92DF92EF92FF924B01B5
:100850005C010E94FA036B017C010E94FA036C198F
:100860007D098E099F09683E734081059105A8F3B3
:1008700021E0821A9108A108B10888EEC80E83E031
:10088000D81EE11CF11C81149104A104B10429F7C4
:10089000FF90EF90DF90CF90BF90AF909F908F90A0
:1008A0000895FC0183858F3F19F061E00C94720379
:1008B0000895FC0180819181892B39F0A281B38157
:1008C0009C9111968C919CBD8DBD83858F3F19F0B5
:1008D00060E00C9472030895AF92BF92CF92DF92C2
:1008E000EF92FF920F931F93CF93DF93EC018881D8
:1008F0009981892B89F06EBD0DB407FEFDCFBEB482
:100900008B2DDF91CF911F910F91FF90EF90DF9092
:10091000CF90BF90AF9008958885998511E0892B7D
:1009200009F010E8AA24A394862F812309F0A12CB2
:10093000062F2C813D814E815F8160E271EA87E064
:1009400090E00E942F17F22EB02EE12CC22ED12C57
:10095000FF2019F0C6010E94EF038A85877F09F006
:1009600042C08D858F3F89F0902F912381E009F45B
:1009700080E08A1551F0EF85F8898F89992369F114
:100980009081892B8083AA24A394E989FA898081A4
:10099000998D892B8083FF2019F0C6010E94EF03F7
:1009A0008E858F3F39F0EB89FC898081988D892372
:1009B00009F0E12AE989FA899081898D8095892356
:1009C00080838E858F3F09F0BE2C88859985892B81
:1009D000B9F5110F1111BCCF93CF90818095892368
:1009E0008083A12CD2CFE989FA898081998D892BC6
:1009F0008083FF2019F0C6010E94EF038D858F3F91
:100A000049F0EF85F8898F89902F9123A9F0908183
:100A1000892B8083E989FA899081898D8095892342
:100A200080838E858F3F69F2EB89FC898081988D68
:100A3000892339F2E12AC5CF908180958923E9CFB6
:100A40001695C8CFCF92DF92EF92FF920F931F932C
:100A5000CF93DF938C01EB016A0179010E94590465
:100A60006881C8010E946C04E601EC0CFD1C6FEF6C
:100A7000C8010E946C048993CE15DF05C1F7C80137
:100A80000E94510481E0DF91CF911F910F91FF905F
:100A9000EF90DF90CF900895089508952091A501DB
:100AA000260F3327331F21323105ECF420911E022B
:100AB000FC0190E080E0243069F082E00895A0918C
:100AC000A5012191AC014B575E4FA40FB52FB11D6D
:100AD0002C930196861798F38091A501680F609377
:100AE000A50180E0089581E0089510921E0281E042
:100AF00080931D021092F80161E082E10E9472036E
:100B000061E083E10E947203E9EBF0E080818E7F77
:100B1000808380818D7F808388E48093B80085E422
:100B20008093BC000895CF93DF9391E0909384016C
:100B30008823B9F0C091B800D091BA008091BC0070
:100B40008A7B8093BC0060E082E10E94720360E0D7
:100B500083E10E9472030E947505D093BA00C0938E
:100B6000B800DF91CF9108958F929F92AF92BF927C
:100B7000CF92DF92EF92FF920F931F93CF93DF9369
:100B8000D0914702D13208F0D7C0182FC091460249
:100B90000E94FA036B017C0180911E0281116BC0DF
:100BA00082E080931E0210931D028FEF80931C023F
:100BB00010921B02D0931A02A6E2B2E0EAEFF1E033
:100BC00080E0D81391C01092F9018091F901CC0F07
:100BD000C82BC093F9018091F801813009F088C0D9
:100BE0001092F8010E94FA036B017C018091F901D7
:100BF0008093BB008091200290912102A09122025B
:100C0000B0912302892B8A2B8B2BA1F00E94FA032F
:100C100000912002109121022091220230912302A2
:100C20006C197D098E099F090617170728073907D0
:100C300008F442C08091BC0083FDD8CF85EC80933E
:100C4000BC000E94FA036B017C0180911E0282307D
:100C500009F450C080911C028F3F09F46FC080914D
:100C60001C02803209F46CC080911C02803309F4AC
:100C700069C084E026C08091200290912102A09159
:100C80002202B0912302892B8A2B8B2B09F484CF6B
:100C90000E94FA038090200290902102A0902202EC
:100CA000B09023026C197D098E099F09861697065C
:100CB000A806B90608F070CF80911F020E94930524
:100CC00085E0109225021092470210922402DF91D3
:100CD000CF911F910F91FF90EF90DF90CF90BF9039
:100CE000AF909F908F9008959D9191938F5F69CF62
:100CF00085EEA5CF8091200290912102A091220241
:100D0000B0912302892B8A2B8B2B09F49ECF0E9452
:100D1000FA030091200210912102209122023091C9
:100D200023026C197D098E099F09061717072807EA
:100D3000390708F08ACFC0CF81E0C3CF80E0C1CFB0
:100D400082E0BFCF83E0BDCFCF93DF93EC01109261
:100D5000D7011092D60110922502109247020E94EC
:100D600075058FEE90E09093D5018093D40180EFCC
:100D700090E09093D3018093D20181E08B8398819E
:100D800080932402909346020E94B40591E0811161
:100D900090E0892FDF91CF9108950895E091D701D8
:100DA0008091D601E81730F4F0E0E852FE4F8081E0
:100DB00090E008958FEF9FEF08959091D701809173
:100DC000D6012FEF3FEF981748F4E92FF0E0E852F3
:100DD000FE4F208130E09F5F9093D701C9010895B5
:100DE0008091D6019091D701891B990B0895CF92DC
:100DF000DF92EF92FF920F931F93CF93DF937C01CB
:100E0000CB018A0120912402222389F0EB016B019E
:100E1000C40ED51ECC15DD0569F06991D701ED91A1
:100E2000FC910190F081E02DC7010995F3CF642F6B
:100E30000E944E05C801DF91CF911F910F91FF9045
:100E4000EF90DF90CF900895CF93DF931F92CDB7AF
:100E5000DEB76983209124022223F9F02091470212
:100E6000203258F021E030E0FC013383228390E00F
:100E700080E00F90DF91CF91089580912502E82FB7
:100E8000F0E0EA5DFD4F998190838F5F80932502AA
:100E90008093470281E090E0ECCF61E0CE010196C3
:100EA0000E944E05F7CF90E080E008951F93CF9306
:100EB000DF93DC011496ED91FC91E417F50710F433
:100EC00090E01FC0122FEA01FC01818192812081F4
:100ED00031E03093240220934602109225021092B2
:100EE0004702DC01ED91FC910280F381E02D099530
:100EF000C817D90729F7812F0E94B40591E0811105
:100F0000DFCF892FDF91CF911F910895CF93DF938A
:100F1000CDB7DEB761970FB6F894DEBF0FBECDBF79
:100F20001982AEE1B3E0FE013196BF019C911196AA
:100F30008C911197129691838283329683E0AE3220
:100F4000B807A1F721E041E150E080912E03909194
:100F50002F030E94560761960FB6F894DEBF0FBEAE
:100F6000CDBFDF91CF9108950F931F93CF93DF9360
:100F700000D0CDB7DEB76A83E091F302F091F402BE
:100F8000309789F0898321E042E050E0BE016F5F35
:100F90007F4FCF010E9456070F900F90DF91CF91A6
:100FA0001F910F9108958F7789830091F502109119
:100FB000F602C8010E9459046981C8010E946C04AC
:100FC0006A81C8010E946C04C8010E945104E4CFE8
:100FD0002F923F924F925F926F927F928F929F9249
:100FE000AF92BF92CF92DF92EF92FF920F931F9337
:100FF000CF93DF937C012A01690120E041E050E0BA
:101000000E945607782E882309F411C110E000E0F1
:1010100033243394D70114968D919C91E601C01B23
:10102000D10B8C179D0708F4EC01F70120800E947A
:10103000FA034B015C0180911E02811172C06C2E7B
:10104000F0E2FC1710F480E2682E30921E0221E0DC
:10105000C6018C1B9D0B0817190708F420E020938C
:101060001D028FEF80931C0210921B02860D80934D
:101070001A023092F9018091F901220C282A20925B
:10108000F9018091F801813009F091C01092F801C6
:101090000E94FA034B015C018091F9018093BB002F
:1010A0008091200290912102A0912202B09123020E
:1010B000892B8A2B8B2BA1F00E94FA03209120020E
:1010C000309121024091220250912302681979093E
:1010D0008A099B09261737074807590708F442C0B1
:1010E0008091BC0083FDD8CFA5ECA093BC000E94EA
:1010F000FA034B015C0180911E02813009F45BC050
:1011000080911B02861510F460901B02AAEFB1E0DB
:10111000E8EDF1E080E0861551F19D9191938F5FAC
:10112000FACF8091200290912102A0912202B091E9
:101130002302892B8A2B8B2B09F47DCF0E94FA0383
:1011400020912002309121024091220250912302ED
:10115000681979098A099B0926173707480759072B
:1011600008F069CF80911F020E949305612C1092B4
:10117000D7016092D6016C161D0609F058C04201D5
:10118000800E911E5401C501881999098C179D077D
:10119000A0F5F70181819281DC01ED91FC9102843F
:1011A000F385E02D0995F50181935F01ECCFB5EE54
:1011B000B093BC009CCF8091200290912102A0911D
:1011C0002202B0912302892B8A2B8B2B09F493CF17
:1011D0000E94FA03209120023091210240912202C4
:1011E00050912302681979098A099B092617370744
:1011F0004807590708F07FCFB5CF0C0F1D1F0C15FE
:101200001D0508F407CF872DDF91CF911F910F9116
:10121000FF90EF90DF90CF90BF90AF909F908F9016
:101220007F906F905F904F903F902F900895712C1A
:10123000EACFCF93DF9300D0CDB7DEB7E091F302D2
:10124000F091F402898322E030E0AE014F5F5F4FFE
:10125000BA01309751F0CF010E94E80789819A8145
:101260000F900F90DF91CF9108958091F5029091AA
:10127000F6020E942205F2CFCF93DF9300D01F9297
:10128000CDB7DEB7FC0182819381698323E030E032
:10129000AE014F5F5F4FBA010097A1F00E94E807CF
:1012A00029816A8170E090E080E0982F872F762F67
:1012B0006627822B2B81622B0F900F900F90DF916E
:1012C000CF910895848195810E942205E9CF8F9264
:1012D0009F92AF92BF92CF92DF92EF92FF920F93C5
:1012E0001F93CF93DF93EC016AEF0E943C090B89B7
:1012F0001C8930E020E0C72ED82EE92EFF24E7FC21
:10130000FA94C01AD10AE20AF30A57E09595879534
:10131000779567955A95D1F7000F111F221F331F3C
:101320004B015C01801A910AA20AB30AA50194013B
:10133000AD89BE890E945C174B015C01FBE0B5944E
:10134000A79497948794FA95D1F7A7019601C701BE
:10135000B6010E941F179B01AC01ACE05595479563
:1013600037952795AA95D1F7AF89B88D0E945C175C
:101370009B01AC01BEE05595479537952795BA95E9
:10138000D1F7280D391D4A1D5B1D2F87388B498BDE
:101390005A8BA5E0B0E00E94511760587F4F8F4FE5
:1013A0009F4F672F782F892F992787FD9A950E9445
:1013B000AA1520E030E048EC52E40E94FA14DF91D4
:1013C000CF911F910F91FF90EF90DF90CF90BF9042
:1013D000AF909F908F9008952F923F924F925F927F
:1013E0006F927F928F929F92AF92BF92CF92DF9235
:1013F000EF92FF920F931F93CF93DF93CDB7DEB79A
:101400006D970FB6F894DEBF0FBECDBF9D8F8C8F4A
:10141000FC0183859485A585B685892B8A2B8B2B2A
:1014200019F0CF010E94670967EF8C8D9D8D0E9496
:101430003C09688F798F8A8F9B8FEC8DFD8D878516
:101440009089A189B2896C017D01FF0CCC08DC2C4C
:1014500076019C01AD016C2D7C2D8C2D9C2D345F73
:1014600041405109610971098109910929873A8728
:101470004B875C873B014C0159016A017B018C0160
:101480000E946417322E232E4A8B5B8B6C8B7D8BD4
:101490008E8B9F8BAC8DBD8D5C963C915C975B96E3
:1014A0002C91932F990F990B492F592F692F792F31
:1014B000892F0E9464170CE00E949318522E3983E2
:1014C0004D875E876F87788B898B492EEC8DFD8DDC
:1014D000368D258D932F990F990BA32CB22CCA888A
:1014E000DB88EC88FD880E891F89492F592F692FC9
:1014F000792F892F0E94641708E00E94AC18A52C50
:10150000B980CD84DE84EF84F8880989142D0E9487
:10151000C91870588F4F9F4FAC8DBD8D5996ED9166
:10152000FC915F01D12CC12CE12CF12C8701E983C6
:10153000BA82CB82DC82ED82FE820F831887C12CB7
:10154000D12CE12CF12C00E010E00E94641701E2A4
:101550000E94AC182983532E4D875E876F87788B46
:10156000898B492EA0E00E94DB1809F43DC1AC8DA7
:10157000BD8D94963C91949793962C91932F990FAF
:10158000990BA32CB22CCA88DB88EC88FD880E89C5
:101590001F89492F592F692F792F892F0E9464178E
:1015A00019014A8B5B8B6C8B7D8B8E8B9F8BEC8DAB
:1015B000FD8D32A121A1932F990F990BA984BA8493
:1015C000CB84DC8473018401492F592F692F792F33
:1015D000892F0E94641701E10E9493185101CA8863
:1015E000DB88EC88FD880E891F890E94C918590183
:1015F0006A017B01282E192F488D598D6A8D7B8DAC
:1016000084E075956795579547958A95D1F780E061
:1016100090E0A0E1B0E0841B950BA60BB70B3C015A
:101620004D01990C6608762C43019C01AD01662D95
:10163000762D862D962D0FE10E949318722E832E03
:10164000942E652EB62FA72F382E9987EC8DFD8D01
:1016500030A1278D932F990F990B492F592F692F5F
:10166000792F892F03E20E949318022D0E94C91836
:1016700059016A017B018C01272D382D492D562DEA
:101680006B2F7A2F832D99850E94D218E5E3AE2E19
:10169000FCE0BF2EC12CD12CE12CF12C00E010E09D
:1016A0000E946417A980B52CCD84DE84EF84F8886D
:1016B0000989142D0E94BE1729873A874B875C87BA
:1016C00069837D878E879F870DE00E94AC18922EDC
:1016D000832E742E652E562E472E382E292EAC8D35
:1016E000BD8D9A963C919A9799962C91932F990F2C
:1016F000990BA92CB82CC72CD62CE52CF42C032D37
:10170000122D492F592F692F792F892F0E94641785
:101710000E94641709E10E94AC18A984BA84CB84A2
:10172000DC84E980FD840E851F850E94C91819019B
:101730002A013B014C01EC8DFD8D30A527A1932F93
:10174000990F990B492F592F692F792F892F0E94B3
:10175000641703E10E94AC1859016A017B018C01F6
:101760009101A201B301C4010E94C91808E00E94BE
:10177000AC1859016A017B01E82F192FAC8DBD8D82
:1017800096963C91969795962C91932F990F990B3D
:10179000492F592F692F792F892F04E00E94931820
:1017A0000E2F0E94C9180E94A21520E030E040E8E8
:1017B0005BE30E94AD166D960FB6F894DEBF0FBEC8
:1017C000CDBFDF91CF911F910F91FF90EF90DF90F0
:1017D000CF90BF90AF909F908F907F906F905F90D1
:1017E0004F903F902F90089560E070E0CB01E3CFE1
:1017F000FC0101900020E9F73197AF01481B590B1C
:10180000BC0188E492E00C9465028F929F92AF92A3
:10181000BF920F931F93CF93DF93CDB7DEB7A197FE
:101820000FB6F894DEBF0FBECDBF19A2423008F448
:101830004AE08E010F5D1F4F842E912CB12CA12CFC
:10184000A50194010E942F17E62FB901CA01EA30C1
:10185000F4F4E05DD801EE938D01232B242B252B8E
:1018600079F790E080E0109719F0CD010E94F80B15
:10187000A1960FB6F894DEBF0FBECDBFDF91CF911A
:101880001F910F91BF90AF909F908F900895E95C4A
:10189000E1CF4F925F926F927F928F929F92AF9221
:1018A000BF92CF92DF92EF92FF920F931F93CF934D
:1018B0006B017C01742EAC019B010E941A178823D6
:1018C00099F086E491E0CF911F910F91FF90EF90F6
:1018D000DF90CF90BF90AF909F908F907F906F9050
:1018E0005F904F900C94F80B46015701E894B7F8BD
:1018F0002FEF3FEF4FE75FE7C501B4010E941A17D2
:1019000081110DC02FEF3FEF4FE75FE7C501B40135
:101910000E94F51418161CF48AE491E0D4CF2FEF3E
:101920003FEF4FE75FE4C701B6010E94A816181603
:101930001CF48EE491E0C7CF2FEF3FEF4FE75FEC51
:10194000C701B6010E94F51487FDF3CF20E030E017
:10195000A901C701B6010E94F51410E000E087FF5D
:101960000AC06DE288E492E00E9405038C01F7FA58
:10197000F094F7F8F094C0E060E070E080E09FE35E
:101980007C1641F020E030E040E251E40E94FA147D
:10199000CF5FF6CFA70196010E9489142B013C016D
:1019A0000E9473154B015C014AE00E94050C7C010A
:1019B000E00EF11ECC23C1F1C501B4010E94A815AF
:1019C0009B01AC01C301B2010E9488144B015C0170
:1019D0006EE288E492E00E940503E80EF91EC15011
:1019E00018F120E030E040E251E4C501B4010E946A
:1019F000AD162B013C010E9473154B01B12CA12C9B
:101A00004AE0C501B4010E94050CE80EF91EC501AB
:101A1000B4010E94A8159B01AC01C301B2010E9450
:101A200088144B015C01DBCFC701CF911F910F914F
:101A3000FF90EF90DF90CF90BF90AF909F908F90EE
:101A40007F906F905F904F9008950C9498190C942C
:101A50009819CF93DF93EB01FB01349620E2DF016D
:101A60001D922A95E9F744E250E060E070E0488377
:101A700059836A837B83FC0143815481052E000CCA
:101A8000660B770B4C835D836E837F8346E050E06B
:101A900060E070E0488759876A877B872FB7F894A2
:101AA0004091C9015091CA016091CB017091CC0164
:101AB0002FBF488B598B6A8B7B8B85819681FC016C
:101AC0004385548565857685452B462B472B81F0CC
:101AD0000E94EC0920E030E048EC52E40E94FA1445
:101AE0006C8B7D8B8E8B9F8B81E0DF91CF910895E6
:101AF00060E070E080EC9FE7EDCFCF93DF93EB01E8
:101B0000FB01349620E2DF011D922A95E9F744E2B9
:101B100050E060E070E0488359836A837B83FC0176
:101B200043815481052E000C660B770B4C835D833B
:101B30006E837F834DE050E060E070E04887598716
:101B40006A877B872FB7F8944091C9015091CA01E9
:101B50006091CB017091CC012FBF488B598B6A8B60
:101B60007B8B85819681FC014385548565857685CF
:101B7000452B462B472B51F00E9467096C8B7D8BC0
:101B80008E8B9F8B81E0DF91CF91089560E070E0B4
:101B900080EC9FE7F3CF0F931F93CF93DF938C01DC
:101BA000EB0188E2FB0111928A95E9F74BE050E0E6
:101BB00062E571E0CE010E94211A1B8681E090E06F
:101BC000A0E0B0E08C879D87AE87BF87F801838156
:101BD0009481092E000CAA0BBB0B888B998BAA8BC6
:101BE000BB8B86E090E0A0E0B0E08C8B9D8BAE8B51
:101BF000BF8B1CA21DA21EA21FA280E090E0A6E93E
:101C0000B3E48C8F9D8FAE8FBF8F80E090E8A9E802
:101C1000B4E4888F998FAA8FBB8F86EA9BE9A4E4EE
:101C2000BCE388A399A3AAA3BBA3DF91CF911F9183
:101C30000F9108950F931F93CF93DF938C01EB01C6
:101C400088E2FB0111928A95E9F74BE050E062E5EA
:101C500071E0CE010E94211A1B8681E090E0A0E095
:101C6000B0E08C879D87AE87BF87F8018381948120
:101C7000092E000CAA0BBB0B888B998BAA8BBB8BF4
:101C80008DE090E0A0E0B0E08C8B9D8BAE8BBF8BA5
:101C90001CA21DA21EA21FA280E090E0A0E2B2EC56
:101CA0008C8F9D8FAE8FBF8F80E090E0AAEAB2E468
:101CB000888F998FAA8FBB8F8AE097EDA3E2BCE350
:101CC00088A399A3AAA3BBA3DF91CF911F910F91E2
:101CD000089585ED8093BC008091200290912102AF
:101CE000A0912202B09123020796A11DB11D23E00D
:101CF000B695A795979587952A95D1F72091BC0021
:101D000024FD03C010921E020895409120025091BC
:101D100021026091220270912302452B462B472B12
:101D200069F30097A105B10541F02AE22A95F1F780
:101D300000C00197A109B109E1CF80911F020C9465
:101D400093051F920F920FB60F9211242F933F937A
:101D50004F935F936F937F938F939F93AF93BF93B3
:101D6000EF93FF9388E492E00E94E302FF91EF91EA
:101D7000BF91AF919F918F917F916F915F914F91A3
:101D80003F912F910F900FBE0F901F9018951F92AB
:101D90000F920FB60F9211242F938F939F93EF936F
:101DA000FF93E0915802F09159028081E0915E0228
:101DB000F0915F0282FD1BC09081809161028F5F74
:101DC0008F7320916202821741F0E0916102F0E08E
:101DD000E85BFD4F958F80936102FF91EF919F919A
:101DE0008F912F910F900FBE0F901F9018958081AB
:101DF000F4CF1F920F920FB60F9211242F933F939F
:101E00008F939F93AF93BF938091C9019091CA0123
:101E1000A091CB01B091CC013091C80123E0230FF8
:101E20002D3758F50196A11DB11D2093C80180934F
:101E3000C9019093CA01A093CB01B093CC018091CA
:101E4000CD019091CE01A091CF01B091D00101962A
:101E5000A11DB11D8093CD019093CE01A093CF0120
:101E6000B093D001BF91AF919F918F913F912F91EE
:101E70000F900FBE0F901F90189526E8230F029623
:101E8000A11DB11DD2CF1F920F920FB60F92112438
:101E90002F933F934F935F936F937F938F939F9372
:101EA000AF93BF93EF93FF938091B900887F803603
:101EB00009F44AC0F0F5883209F4A7C018F580315A
:101EC00009F49BC0B8F4882309F4F9C0883009F4F8
:101ED00094C0FF91EF91BF91AF919F918F917F91AE
:101EE0006F915F914F913F912F910F900FBE0F9087
:101EF0001F901895883109F488C0803251F780937B
:101F00001C0214C0803409F49DC040F48033B9F33E
:101F10008833F9F680931C0285ECB0C0803509F453
:101F200085C0883509F496C0883499F60E94690EF8
:101F3000D0CF883909F48CC038F5883729F050F4AF
:101F4000883611F0803729F683E080931E021092C4
:101F5000C70157C0883809F47BC0803919F0803830
:101F600009F0B7CF8091C701803208F071C0E091CD
:101F7000C70181E08E0F8093C7018091BB00F0E024
:101F8000E955FE4F80833DC0803B39F0E0F4803A54
:101F900009F479C0883A09F09CCF84E080931E024E
:101FA0001092A6011092A501E091D401F091D50103
:101FB00009958091A50181110FC081E08093A50151
:101FC0001092850109C0803C09F4A6CF883C09F431
:101FD000A3CF883B09F07DCFE091A60181E08E0F71
:101FE0008093A601F0E0EB57FE4F80818093BB0009
:101FF0009091A6018091A50129C08091F90180935B
:10200000BB0085EC8093BC0064CF90911B02809153
:102010001A02981758F5E0911B0281E08E0F809309
:102020001B02F0E0E650FE4F8081E9CFE0911B02F9
:1020300081E08E0F80931B028091BB00F0E0E650A0
:10204000FE4F808390911B0280911A029817C8F26C
:1020500085E8D8CFE0911B0281E08E0F80931B02B0
:102060008091BB00F0E0E650FE4F808380911D021E
:1020700081115CCF81E08093F80184EA8093BC00F9
:1020800010921E0226CF85EC8093BC0010921E0297
:102090008091C701803230F4E091C701F0E0E9554A
:1020A000FE4F10826091C70170E0E091D201F09183
:1020B000D30187EA91E009951092C7010ACF1092E7
:1020C0001C0234CF0F931F93CF93DF93E8E4F2E029
:1020D0001382128288EE93E0A0E0B0E084839583BF
:1020E000A683B7832AE031E03183208325EC30E0FA
:1020F0003587248724EC30E03787268720EC30E0D2
:10210000318B208B21EC30E0338B228B22EC30E0C2
:10211000358B248B26EC30E0378B268B118E128E7C
:10212000138E148EE5EEF2E013821282848395837F
:10213000A683B7838CE191E091838083EEE1F3E0A5
:10214000118A108A128A01EF12E0D80113961C92AC
:102150001E921297F801138614861586168613A60A
:1021600014A68CE190E00E94FC18EC018AE08B87B9
:102170008DE08C878CE08E878BE08D87ECE4F1E03E
:10218000E491F0E0EE0FFF1FE85CFE4F8591949123
:102190009E8B8D8BEEE2F1E0E491EA8FEDE4F1E0CD
:1021A000E491F0E0EE0FFF1FE85CFE4F8591949103
:1021B000988B8F87EFE2F1E0E491EF8BEEE4F1E0B2
:1021C000E491F0E0EE0FFF1FE65EFE4F85919491E3
:1021D0009C8B8B8BE0E3F1E0E491E88FEFE4F1E09E
:1021E000E491F0E0EE0FFF1FE85CFE4F85919491C3
:1021F0009A8B898BE1E3F1E0E491E98F80E492E44A
:10220000AFE0B0E08C839D83AE83BF8381E090E03C
:10221000998788871A861B8E82E090E00E94FC18BE
:1022200021E5DC012C9311961C929B838A831982F1
:102230001882F801D583C48387E090E00E94FC18DF
:10224000FC018CE391E09183808388E191E09483A9
:10225000838316830583D8011796FC93EE93169714
:1022600087E090E00E94FC18FC018EE291E09183EF
:1022700080831482138216830583D8011996FC93F8
:10228000EE931897DF91CF911F910F910895CF93FF
:10229000DF9300D0CDB7DEB7789484B5826084BD7B
:1022A00084B5816084BD85B5826085BD85B581605A
:1022B00085BD80916E00816080936E0010928100D8
:1022C0008091810082608093810080918100816093
:1022D0008093810080918000816080938000809154
:1022E000B10084608093B1008091B00081608093E0
:1022F000B00080917A00846080937A0080917A00A7
:10230000826080937A0080917A00816080937A0065
:1023100080917A00806880937A001092C100E091E9
:102320005802F091590282E08083E0915402F091CA
:1023300055021082E0915602F09157028FEC808393
:1023400010926002E0915C02F0915D0286E0808371
:10235000E0915A02F0915B02808180618083E0917C
:102360005A02F0915B02808188608083E0915A027A
:10237000F0915B02808180688083E0915A02F09145
:102380005B0280818F7D808380912E0390912F034B
:10239000009711F00E94981986E090E00E94FC18C6
:1023A00020E7FC01208325EE32E032832183138273
:1023B00020E230E03583248390932F0380932E0313
:1023C0000E94A406882309F44CC081E28A8321E09C
:1023D00041E050E0BE016E5F7F4F80912E039091EF
:1023E0002F030E94560710921F0310921E03109293
:1023F00021031092200310922303109222031092C3
:1024000025031092240310922703109226031092A2
:1024100029031092280310922B0310922A03109282
:102420002D0310922C030E94860781E8898321E006
:1024300041E050E0BE016F5F7F4F80912E0390918D
:102440002F030E9456078FEE898321E041E050E080
:10245000BE016F5F7F4F80912E0390912F030E94EA
:1024600056070091F5021091F6020115110509F0C9
:102470005BC08091F3029091F402009711F00E94EA
:10248000981986E090E00E94FC182091F1023091AA
:10249000F20247E7FC01408332832183138220E26A
:1024A00030E0358324839093F4028093F3020E94FA
:1024B000A406811181C006E810E0F801649166234A
:1024C00041F088E492E00E9405030F5F1F4F892BC3
:1024D000A1F789E591E00E94F80B0CE511E023E0FB
:1024E000F22EF80161918F016A3009F0BDC110929E
:1024F0003003809130038F5F823009F4C1C1809333
:102500003003F1E001361F0761F780913003E82FB7
:10251000F0E0EE0FFF1FE25EFC4F853008F0B3C124
:10252000119211928F5FF9CFF80183858F3F41F0AF
:1025300061E00E94BE0361E0F80183850E9472039E
:10254000F80180819181892B09F45DC1FFB6F8946F
:102550008091D101811127C0ECE4F1E08491EEE299
:10256000F1E09491E82FF0E0EE0FFF1FE458FF4FE9
:10257000A591B491EC91E92321F461E08AE00E94F5
:10258000720361E08AE00E94BE038CB580618CBD5D
:102590008CB580648CBD61E08DE00E94BE0361E07B
:1025A0008BE00E94BE038091D1018F5F8093D101A7
:1025B000FFBE81E0F801838F8091F3029091F402D5
:1025C000009709F442C120ED298321E030E0AE01FB
:1025D0004F5F5F4FBA010E94E807898190E0B0E049
:1025E000A0E08093FC029093FD02A093FE02B093C2
:1025F000FF0288359105A105B10509F05CCF88E897
:102600000E94190990930503809304038AE80E94AD
:10261000190990930703809306038CE80E94190917
:1026200090930903809308038EE80E941909909300
:102630000B0380930A0380E90E94190990930D030C
:1026400080930C0382E90E94190990930F038093F1
:102650000E0384E90E9419099093110380931003DB
:1026600086E90E941909909313038093120388E965
:102670000E94190990931503809314038AE90E941C
:10268000190990931703809316038CE90E94190986
:1026900090931903809318038EE90E94190990936F
:1026A0001B0380931A038091FC029091FD02A0917C
:1026B000FE02B091FF02892B8A2B8B2B41F18DEE0C
:1026C00080931D0360911C03607C60931C0367FB77
:1026D000662760F985EF0E94B40780911D03682F7B
:1026E0006770F0E26F9FB0011124282F2695269580
:1026F0002695277094E0299F90011124622B8295E2
:10270000869586958370682B84EF0E94B40764E6F3
:1027100070E080E090E00E941F0400E010E08091F3
:10272000FC029091FD02A091FE02B091FF02892B64
:102730008A2B8B2B09F4AAC081EF92E00E946709D3
:102740006B017C012AE042E0C701B6010E94F10062
:102750000E94860782E691E00E94F80B42E0C701E2
:10276000B6010E94490C89E591E00E94F80B68EBE4
:102770007BE080E090E00E941F048091FC02909139
:10278000FD02A091FE02B091FF02892B8A2B8B2BB8
:1027900009F483C081EF92E00E94EC0920E030E070
:1027A00048EC52E40E94FA146B017C010E946C1503
:1027B000072E000C880B990B0E94AA152AE040E016
:1027C0000E94F1000E94860780E791E00E94F80BCA
:1027D00042E0C701B6010E94490C89E591E00E94E0
:1027E000F80B68EB7BE080E090E00E941F0401158D
:1027F000110509F494CF0E94CF02882309F48FCFEA
:102800000E9400008CCF61E084850E94BE03F80125
:1028100082858B7F60E009F061E084850E9472030D
:10282000F80185858F3F41F061E00E94BE0361E0C1
:10283000F80185850E947203F80186858F3F09F4AF
:10284000B8CE60E00E94BE03B4CE80ED898321E063
:1028500030E0AE014F5F5F4FBA018091F502909179
:10286000F6020E942205B9CE6D3009F440CE809167
:10287000300360320CF43DCE40E00E94D70039CEE8
:10288000F09230033ECE0E948607FFCFC12CD12CA0
:1028900080ECE82E8FE7F82E55CF60E070E080ECFA
:1028A0009FE77CCFCF93DF93C091F502D091F602E2
:1028B000209739F08A819B810E949819CE010E944D
:1028C00098198091F3029091F402009711F00E9400
:1028D00098198091F7029091F802009739F0DC0185
:1028E000ED91FC910280F381E02D09958091F90230
:1028F0009091FA02009749F0DC01ED91FC91028081
:10290000F381E02DDF91CF910994DF91CF9108956C
:102910005058BB27AA270E94A0140C946E160E9440
:10292000601638F00E94671620F039F49F3F19F4C2
:1029300026F40C944D160EF4E095E7FB0C94471624
:10294000E92F0E947F1658F3BA17620773078407AE
:10295000950720F079F4A6F50C94A1160EF4E095F5
:102960000B2EBA2FA02D0B01B90190010C01CA0149
:10297000A0011124FF27591B99F0593F50F4503EF4
:1029800068F11A16F040A22F232F342F4427585FE6
:10299000F3CF469537952795A795F0405395C9F7FE
:1029A0007EF41F16BA0B620B730B840BBAF09150B6
:1029B000A1F0FF0FBB1F661F771F881FC2F70EC055
:1029C000BA0F621F731F841F48F487957795679528
:1029D000B795F7959E3F08F0B0CF9395880F08F014
:1029E0009927EE0F9795879508950E94231608F46E
:1029F00081E008950E940E150C946E160E946716D1
:102A000058F00E94601640F029F45F3F29F00C94C2
:102A1000471651110C94A2160C944D160E947F1665
:102A200068F39923B1F3552391F3951B550BBB27FD
:102A3000AA2762177307840738F09F5F5F4F220F42
:102A4000331F441FAA1FA9F335D00E2E3AF0E0E839
:102A500032D091505040E695001CCAF72BD0FE2F83
:102A600029D0660F771F881FBB1F26173707480717
:102A7000AB07B0E809F0BB0B802DBF01FF279358CF
:102A80005F4F3AF09E3F510578F00C9447160C9436
:102A9000A2165F3FE4F3983ED4F386957795679549
:102AA000B795F7959F5FC9F7880F911D9695879504
:102AB00097F90895E1E0660F771F881FBB1F621723
:102AC00073078407BA0720F0621B730B840BBA0BE1
:102AD000EE1F88F7E09508950E9473156894B11170
:102AE0000C94A21608950E94871688F09F5798F0BC
:102AF000B92F9927B751B0F0E1F0660F771F881F03
:102B0000991F1AF0BA95C9F714C0B13091F00E941C
:102B1000A116B1E008950C94A116672F782F88278D
:102B2000B85F39F0B93FCCF3869577956795B39543
:102B3000D9F73EF490958095709561957F4F8F4FB2
:102B40009F4F089597FB16F40E9450160C94E615BB
:102B5000E89409C097FB3EF4909580957095619537
:102B60007F4F8F4F9F4F9923A9F0F92F96E9BB27ED
:102B70009395F695879577956795B795F111F8CF69
:102B8000FAF4BB0F11F460FF1BC06F5F7F4F8F4FD4
:102B90009F4F16C0882311F096E911C0772321F0CA
:102BA0009EE8872F762F05C0662371F096E8862F62
:102BB00070E060E02AF09A95660F771F881FDAF7B9
:102BC000880F9695879597F90895E894F92F96EBD5
:102BD000FF2381F0121613061406440B9395F69505
:102BE00087957795679557954040FF23B9F71BC0A8
:102BF00099270895882351F49850D2F7872B762F80
:102C0000652F542F432F322F20E0B1F312161306F5
:102C10001406440B88233AF09A95440F551F661FFB
:102C2000771F881FCAF755234AF4440F551F11F424
:102C300060FF04C06F5F7F4F8F4F9F4F880F969547
:102C4000879597F90895990F0008550FAA0BE0E8AA
:102C5000FEEF16161706E807F907C0F0121613065E
:102C6000E407F50798F0621B730B840B950B39F49E
:102C70000A2661F0232B242B252B21F408950A2604
:102C800009F4A140A6958FEF811D811D089597F944
:102C90009F6780E870E060E008959FEF80EC089502
:102CA00090958095709560955095409530952195BB
:102CB0003F4F4F4F5F4F6F4F7F4F8F4F9F4F089545
:102CC00000240A941616170618060906089500240B
:102CD0000A9412161306140605060895092E039485
:102CE000000C11F4882352F0BB0F40F4BF2B11F4F9
:102CF00060FF04C06F5F7F4F8F4F9F4F089557FD58
:102D00009058440F551F59F05F3F71F04795880F59
:102D100097FB991F61F09F3F79F0879508951216F0
:102D200013061406551FF2CF4695F1DF08C016169C
:102D300017061806991FF1CF86957105610508944D
:102D40000895E894BB2766277727CB0197F9089564
:102D50000E94231608F48FEF08950E94C0160C9469
:102D60006E160E94601638F00E94671620F09523B8
:102D700011F00C9447160C944D1611240C94A216C5
:102D80000E947F1670F3959FC1F3950F50E0551F79
:102D9000629FF001729FBB27F00DB11D639FAA27B0
:102DA000F00DB11DAA1F649F6627B00DA11D661FFF
:102DB000829F2227B00DA11D621F739FB00DA11D20
:102DC000621F839FA00D611D221F749F3327A00DDA
:102DD000611D231F849F600D211D822F762F6A2F76
:102DE00011249F5750409AF0F1F088234AF0EE0FDB
:102DF000FF1FBB1F661F771F881F91505040A9F708
:102E00009E3F510580F00C9447160C94A2165F3F2C
:102E1000E4F3983ED4F3869577956795B795F79543
:102E2000E7959F5FC1F7FE2B880F911D96958795BB
:102E300097F908950E942316880B990B0895DB01DA
:102E40008F939F930E945117BF91AF91A29F800DC6
:102E5000911DA39F900DB29F900D11240895A1E2A2
:102E60001A2EAA1BBB1BFD010DC0AA1FBB1FEE1F04
:102E7000FF1FA217B307E407F50720F0A21BB30B4F
:102E8000E40BF50B661F771F881F991F1A9469F7CB
:102E900060957095809590959B01AC01BD01CF0127
:102EA00008950E94ED18A59F900DB49F900DA49FCA
:102EB000800D911D11240895B7FF0C9451170E94A5
:102EC0005117821B930B0895DF93CF931F930F939A
:102ED0009A9DF02D219FF00D8B9DF00D8A9DE02D88
:102EE000F10D039FF00D029FE00DF11D4E9DE00DD1
:102EF000F11D5E9DF00D4F9DF00D7F936F93BF927E
:102F0000AF925F934F93D5010E94ED188B01AC01F6
:102F1000D7010E94ED18EB01E80FF91FD6010E94BE
:102F2000B3172F913F91D6010E94ED18C60FD71FFE
:102F3000E81FF91FAF91BF910E94B3172F913F91E6
:102F40000E94ED18C60FD71FE81FF91FD6010E9477
:102F5000ED18E60FF71F9801BE01CF010F911F91E9
:102F6000CF91DF9108950E94ED18460F571FC81F9B
:102F7000D91F08F431960895689401C0E894F92F98
:102F8000F12B12F00C94F017A0E0B0E0EAECF7E1BE
:102F90000C946218092E059422F40E944C181123F7
:102FA00092F4F0E80F26FFEFE094F094009510956E
:102FB000B094C094D094A194BF0ACF0ADF0AEF0A5C
:102FC000FF0A0F0B1F0B0E94FB1707FC0E944C18F7
:102FD000CDB7DEB7ECE00C947E18689401C0E8949D
:102FE0008F929F92CF93DF930E94FB17DF91CF9137
:102FF0009F908F90089588249924F401E401B0E40F
:103000009F93AA279A158B049C04ED05FE05CF0516
:10301000D007A10798F4AD2FDC2FCF2FFE2FE92D7D
:10302000982C892E982F872F762F652F542F432F7A
:10303000322F2227B85031F7BF9127C01B2EBF91E6
:10304000BB27220F331F441F551F661F771F881F82
:10305000991F881C991CEE1FFF1FCC1FDD1FAA1F84
:10306000BB1F8A149B04EC05FD05CE05DF05A007F8
:10307000B10748F08A189B08EC09FD09CE09DF0961
:10308000A00BB10B21601A94E1F62EF49401AF016C
:10309000BE01CD01000C08956095709580959095C6
:1030A00030954095509521953F4F4F4F5F4F6F4F53
:1030B0007F4F8F4F9F4F08952F923F924F925F9275
:1030C0006F927F928F929F92AF92BF92CF92DF9238
:1030D000EF92FF920F931F93CF93DF93CDB7DEB79D
:1030E000CA1BDB0B0FB6F894DEBF0FBECDBF099431
:1030F0002A88398848885F846E847D848C849B8488
:10310000AA84B984C884DF80EE80FD800C811B8195
:10311000AA81B981CE0FD11D0FB6F894DEBF0FBEC4
:10312000CDBFED010895002E083090F0982F872F25
:10313000762F652F542F432F322F22270850F4CF9C
:10314000220F331F441F551F661F771F881F991FAB
:103150000A95B2F7002D089597FD1094002E0830BF
:1031600098F00850232F342F452F562F672F782F94
:10317000892F912DF4CF159497958795779567951D
:1031800057954795379527950A95AAF71124002D4D
:1031900008952A0D3B1D4C1D5D1D6E1D7F1D801F5A
:1031A000911F08952A193B094C095D096E097F0991
:1031B000800B910B08950024A7FD00942A17300579
:1031C0004005500560057005800590050895EE0FD7
:1031D000FF1F0590F491E02D0994A29FB001B39FC9
:1031E000C001A39F700D811D1124911DB29F700D10
:1031F000811D1124911D08950F931F93CF93DF9389
:103200008230910510F482E090E0E0913303F09178
:10321000340330E020E0B0E0A0E0309799F42115CD
:10322000310509F44AC0281B390B24303105D8F583
:103230008A819B816115710589F1FB0193838283EA
:10324000FE0111C040815181028113814817590745
:10325000E0F04817590799F4109761F012960C9313
:10326000129713961C933296CF01DF91CF911F9145
:103270000F9108950093330310933403F4CF211575
:10328000310551F04217530738F0A901DB019A01CB
:10329000BD01DF01F801C1CFEF01F9CF90933403F5
:1032A00080933303CDCFFE01E20FF31F81939193FF
:1032B0002250310939832883D7CF209131033091AF
:1032C0003203232B41F4209102013091030130930A
:1032D0003203209331032091000130910101211527
:1032E000310541F42DB73EB74091040150910501DD
:1032F000241B350BE0913103F0913203E217F30701
:10330000A0F42E1B3F0B2817390778F0AC014E5F55
:103310005F4F2417350748F04E0F5F1F509332035D
:1033200040933103819391939FCFF0E0E0E09CCFF5
:10333000CF93DF930097E9F0FC013297138212825A
:10334000A0913303B0913403ED0130E020E01097F9
:10335000A1F420813181820F931F2091310330919C
:1033600032032817390709F061C0F0933203E09364
:103370003103DF91CF910895EA01CE17DF07E8F519
:103380004A815B819E0141155105B1F7E901FB833B
:10339000EA8349915991C40FD51FEC17FD0761F4D9
:1033A000808191810296840F951FE901998388831A
:1033B000828193819B838A83F0E0E0E012968D9175
:1033C0009C9113970097B9F52D913C911197CD01E0
:1033D0000296820F931F20913103309132032817F8
:1033E000390739F6309751F51092340310923303B0
:1033F000B0933203A0933103BCCFD383C283408107
:103400005181840F951FC817D90761F44E5F5F4F34
:1034100088819981480F591F518340838A819B81FC
:10342000938382832115310509F0B0CFF0933403E3
:10343000E09333039ECFFD01DC01C0CF13821282E3
:10344000D7CFFB01DC014150504048F001900D9274
:103450000020C9F701C01D9241505040E0F7089587
:1034600010E0CCEAD0E004C0FE010E94E7182196EB
:10347000CD3AD107C9F7F894FFCF0000350380009B
:10348000000000000503650292025203C302A1027C
:10349000B502000000002407F7065307CD06F0062A
:1034A000DD06CE06000000004C05270D4D05290D58
:1034B000CB0D000000004C05250D4D057D0D1A0EAD
:1034C0006E616E00696E66006F766600424D503226
:1034D0003830000D0A004572726F720054656D70CD
:1034E000657261747572653A20004162736F6C7524
:0E34F00074652070726573737572653A200002
:107E0000112484B714BE81FFF0D085E080938100F7
:107E100082E08093C00088E18093C10086E0809377
:107E2000C20080E18093C4008EE0C9D0259A86E02C
:107E300020E33CEF91E0309385002093840096BBD3
:107E4000B09BFECF1D9AA8958150A9F7CC24DD24C4
:107E500088248394B5E0AB2EA1E19A2EF3E0BF2EE7
:107E6000A2D0813461F49FD0082FAFD0023811F036
:107E7000013811F484E001C083E08DD089C08234E0
:107E800011F484E103C0853419F485E0A6D080C0E4
:107E9000853579F488D0E82EFF2485D0082F10E0AE
:107EA000102F00270E291F29000F111F8ED06801E7
:107EB0006FC0863521F484E090D080E0DECF843638
:107EC00009F040C070D06FD0082F6DD080E0C81688
:107ED00080E7D80618F4F601B7BEE895C0E0D1E017
:107EE00062D089930C17E1F7F0E0CF16F0E7DF06D8
:107EF00018F0F601B7BEE89568D007B600FCFDCFD4
:107F0000A601A0E0B1E02C9130E011968C91119780
:107F100090E0982F8827822B932B1296FA010C0160
:107F200087BEE89511244E5F5F4FF1E0A038BF0790
:107F300051F7F601A7BEE89507B600FCFDCF97BE46
:107F4000E89526C08437B1F42ED02DD0F82E2BD052
:107F50003CD0F601EF2C8F010F5F1F4F84911BD097
:107F6000EA94F801C1F70894C11CD11CFA94CF0C13
:107F7000D11C0EC0853739F428D08EE10CD085E9AC
:107F80000AD08FE07ACF813511F488E018D01DD067
:107F900080E101D065CF982F8091C00085FFFCCF94
:107FA0009093C60008958091C00087FFFCCF809118
:107FB000C00084FD01C0A8958091C6000895E0E648
:107FC000F0E098E1908380830895EDDF803219F02E
:107FD00088E0F5DFFFCF84E1DECF1F93182FE3DFCA
:107FE0001150E9F7F2DF1F91089580E0E8DFEE27F6
:047FF000FF270994CA
:027FFE00040479
:00000001FF
